{
  "contractName": "MedicineSupplyChain",
  "abi": [
    {
      "anonymous": false,
      "inputs": [
        {
          "indexed": true,
          "internalType": "uint256",
          "name": "medicineId",
          "type": "uint256"
        },
        {
          "indexed": false,
          "internalType": "string",
          "name": "name",
          "type": "string"
        },
        {
          "indexed": true,
          "internalType": "address",
          "name": "manufacturer",
          "type": "address"
        }
      ],
      "name": "MedicineAdded",
      "type": "event"
    },
    {
      "anonymous": false,
      "inputs": [
        {
          "indexed": true,
          "internalType": "uint256",
          "name": "medicineId",
          "type": "uint256"
        },
        {
          "indexed": true,
          "internalType": "address",
          "name": "buyer",
          "type": "address"
        }
      ],
      "name": "MedicineSoldToBuyer",
      "type": "event"
    },
    {
      "anonymous": false,
      "inputs": [
        {
          "indexed": true,
          "internalType": "uint256",
          "name": "medicineId",
          "type": "uint256"
        },
        {
          "indexed": true,
          "internalType": "address",
          "name": "retailer",
          "type": "address"
        }
      ],
      "name": "MedicineSoldToRetailer",
      "type": "event"
    },
    {
      "inputs": [],
      "name": "medicineCounter",
      "outputs": [
        {
          "internalType": "uint256",
          "name": "",
          "type": "uint256"
        }
      ],
      "stateMutability": "view",
      "type": "function",
      "constant": true
    },
    {
      "inputs": [
        {
          "internalType": "uint256",
          "name": "",
          "type": "uint256"
        }
      ],
      "name": "medicines",
      "outputs": [
        {
          "internalType": "uint256",
          "name": "id",
          "type": "uint256"
        },
        {
          "internalType": "string",
          "name": "name",
          "type": "string"
        },
        {
          "internalType": "string",
          "name": "composition",
          "type": "string"
        },
        {
          "internalType": "uint256",
          "name": "manufacturingDate",
          "type": "uint256"
        },
        {
          "internalType": "uint256",
          "name": "expiryDate",
          "type": "uint256"
        },
        {
          "internalType": "address",
          "name": "manufacturer",
          "type": "address"
        },
        {
          "internalType": "address",
          "name": "retailer",
          "type": "address"
        },
        {
          "internalType": "address",
          "name": "buyer",
          "type": "address"
        },
        {
          "internalType": "bool",
          "name": "isSoldToRetailer",
          "type": "bool"
        },
        {
          "internalType": "bool",
          "name": "isSoldToBuyer",
          "type": "bool"
        }
      ],
      "stateMutability": "view",
      "type": "function",
      "constant": true
    },
    {
      "inputs": [
        {
          "internalType": "string",
          "name": "_name",
          "type": "string"
        },
        {
          "internalType": "string",
          "name": "_composition",
          "type": "string"
        },
        {
          "internalType": "uint256",
          "name": "_manufacturingDate",
          "type": "uint256"
        },
        {
          "internalType": "uint256",
          "name": "_expiryDate",
          "type": "uint256"
        }
      ],
      "name": "addMedicine",
      "outputs": [],
      "stateMutability": "nonpayable",
      "type": "function"
    },
    {
      "inputs": [
        {
          "internalType": "uint256",
          "name": "_medicineId",
          "type": "uint256"
        },
        {
          "internalType": "address",
          "name": "_retailer",
          "type": "address"
        }
      ],
      "name": "sellMedicineToRetailer",
      "outputs": [],
      "stateMutability": "nonpayable",
      "type": "function"
    },
    {
      "inputs": [
        {
          "internalType": "uint256",
          "name": "_medicineId",
          "type": "uint256"
        },
        {
          "internalType": "address",
          "name": "_buyer",
          "type": "address"
        }
      ],
      "name": "sellMedicineToBuyer",
      "outputs": [],
      "stateMutability": "nonpayable",
      "type": "function"
    },
    {
      "inputs": [
        {
          "internalType": "uint256",
          "name": "_medicineId",
          "type": "uint256"
        }
      ],
      "name": "getMedicineDetails",
      "outputs": [
        {
          "internalType": "string",
          "name": "name",
          "type": "string"
        },
        {
          "internalType": "string",
          "name": "composition",
          "type": "string"
        },
        {
          "internalType": "uint256",
          "name": "manufacturingDate",
          "type": "uint256"
        },
        {
          "internalType": "uint256",
          "name": "expiryDate",
          "type": "uint256"
        },
        {
          "internalType": "address",
          "name": "manufacturer",
          "type": "address"
        },
        {
          "internalType": "address",
          "name": "retailer",
          "type": "address"
        },
        {
          "internalType": "address",
          "name": "buyer",
          "type": "address"
        }
      ],
      "stateMutability": "view",
      "type": "function",
      "constant": true
    },
    {
      "inputs": [
        {
          "internalType": "uint256",
          "name": "_medicineId",
          "type": "uint256"
        }
      ],
      "name": "isMedicineExpired",
      "outputs": [
        {
          "internalType": "bool",
          "name": "",
          "type": "bool"
        }
      ],
      "stateMutability": "view",
      "type": "function",
      "constant": true
    }
  ],
  "bytecode": "0x608060405234801561001057600080fd5b50610de6806100206000396000f3fe608060405234801561001057600080fd5b506004361061007d5760003560e01c8063ac859a4b1161005b578063ac859a4b146100d9578063c85e766d146100f0578063dd090ba014610119578063f2dfac2e1461014e57600080fd5b80630292e8f8146100825780632ba25bdc146100975780632f5f957c146100aa575b600080fd5b6100956100903660046109a0565b610161565b005b6100956100a5366004610a7f565b6102be565b6100bd6100b8366004610af3565b6104ae565b6040516100d09796959493929190610b52565b60405180910390f35b6100e260015481565b6040519081526020016100d0565b6101036100fe366004610af3565b6106b9565b6040516100d09a99989796959493929190610bae565b61013e610127366004610af3565b600090815260208190526040902060040154421190565b60405190151581526020016100d0565b61009561015c3660046109a0565b610831565b60008281526020819052604090206006015482906001600160a01b031633146101e45760405162461bcd60e51b815260206004820152602a60248201527f4f6e6c79207468652072657461696c65722063616e20706572666f726d20746860448201526934b99030b1ba34b7b71760b11b60648201526084015b60405180910390fd5b6000838152602081905260409020600701548390600160a81b900460ff16156102595760405162461bcd60e51b815260206004820152602160248201527f4d65646963696e6520616c726561647920736f6c6420746f20612062757965726044820152601760f91b60648201526084016101db565b6000848152602081905260408082206007018054600161ff0160a01b0319166001600160a01b038716908117600160a81b179091559051909186917f1448e57e39f10e77783bbd07cdb24984fdda02a8013df4f1ca0b203c6d316aad9190a350505050565b8181116103295760405162461bcd60e51b815260206004820152603360248201527f45787069727920646174652073686f756c64206265206166746572207468652060448201527236b0b73ab330b1ba3ab934b733903230ba329760691b60648201526084016101db565b6001805490600061033983610c26565b9091555050604080516101408101825260018054808352602080840189815284860189905260608501889052608085018790523360a0860152600060c0860181905260e086018190526101008601819052610120860181905292835290829052939020825181559251919291908201906103b39082610cd6565b50604082015160028201906103c89082610cd6565b50606082015160038201556080820151600482015560a08201516005820180546001600160a01b039283166001600160a01b03199182161790915560c08401516006840180549184169190921617905560e083015160079092018054610100850151610120909501511515600160a81b0260ff60a81b19951515600160a01b026001600160a81b0319909216949093169390931792909217929092169190911790556001546040513391907f44d8f5ebcb057ea9830fb300af00390bec5fcc3893b2d163deebf9059863bc5d906104a0908890610d96565b60405180910390a350505050565b6060806000806000806000806000808a815260200190815260200160002060405180610140016040529081600082015481526020016001820180546104f290610c4d565b80601f016020809104026020016040519081016040528092919081815260200182805461051e90610c4d565b801561056b5780601f106105405761010080835404028352916020019161056b565b820191906000526020600020905b81548152906001019060200180831161054e57829003601f168201915b5050505050815260200160028201805461058490610c4d565b80601f01602080910402602001604051908101604052809291908181526020018280546105b090610c4d565b80156105fd5780601f106105d2576101008083540402835291602001916105fd565b820191906000526020600020905b8154815290600101906020018083116105e057829003601f168201915b50505091835250506003820154602080830191909152600483015460408084019190915260058401546001600160a01b039081166060808601919091526006860154821660808087019190915260079096015491821660a08087019190915260ff600160a01b84048116151560c080890191909152600160a81b90940416151560e0968701529387015192870151908701519587015193870151918701519690940151919f939e50939c50909a50919850919650945092505050565b600060208190529081526040902080546001820180549192916106db90610c4d565b80601f016020809104026020016040519081016040528092919081815260200182805461070790610c4d565b80156107545780601f1061072957610100808354040283529160200191610754565b820191906000526020600020905b81548152906001019060200180831161073757829003601f168201915b50505050509080600201805461076990610c4d565b80601f016020809104026020016040519081016040528092919081815260200182805461079590610c4d565b80156107e25780601f106107b7576101008083540402835291602001916107e2565b820191906000526020600020905b8154815290600101906020018083116107c557829003601f168201915b5050506003840154600485015460058601546006870154600790970154959692959194506001600160a01b0390811693509182169181169060ff600160a01b8204811691600160a81b9004168a565b60008281526020819052604090206005015482906001600160a01b031633146108b35760405162461bcd60e51b815260206004820152602e60248201527f4f6e6c7920746865206d616e7566616374757265722063616e20706572666f7260448201526d36903a3434b99030b1ba34b7b71760911b60648201526084016101db565b6000838152602081905260409020600701548390600160a01b900460ff161561092a5760405162461bcd60e51b8152602060048201526024808201527f4d65646963696e6520616c726561647920736f6c6420746f20612072657461696044820152633632b91760e11b60648201526084016101db565b6000848152602081905260408082206006810180546001600160a01b0388166001600160a01b031990911681179091556007909101805460ff60a01b1916600160a01b1790559051909186917fcc7f0a17c797becfcb47915e87b827a85d629c0c0e7b42a049ca79a5cf99bc339190a350505050565b600080604083850312156109b357600080fd5b8235915060208301356001600160a01b03811681146109d157600080fd5b809150509250929050565b634e487b7160e01b600052604160045260246000fd5b600082601f830112610a0357600080fd5b813567ffffffffffffffff80821115610a1e57610a1e6109dc565b604051601f8301601f19908116603f01168101908282118183101715610a4657610a466109dc565b81604052838152866020858801011115610a5f57600080fd5b836020870160208301376000602085830101528094505050505092915050565b60008060008060808587031215610a9557600080fd5b843567ffffffffffffffff80821115610aad57600080fd5b610ab9888389016109f2565b95506020870135915080821115610acf57600080fd5b50610adc878288016109f2565b949794965050505060408301359260600135919050565b600060208284031215610b0557600080fd5b5035919050565b6000815180845260005b81811015610b3257602081850181015186830182015201610b16565b506000602082860101526020601f19601f83011685010191505092915050565b60e081526000610b6560e083018a610b0c565b8281036020840152610b77818a610b0c565b6040840198909852505060608101949094526001600160a01b03928316608085015290821660a08401521660c09091015292915050565b60006101408c8352806020840152610bc88184018d610b0c565b90508281036040840152610bdc818c610b0c565b606084019a909a52505060808101969096526001600160a01b0394851660a087015292841660c0860152921660e08401529015156101008301521515610120909101529392505050565b600060018201610c4657634e487b7160e01b600052601160045260246000fd5b5060010190565b600181811c90821680610c6157607f821691505b602082108103610c8157634e487b7160e01b600052602260045260246000fd5b50919050565b601f821115610cd157600081815260208120601f850160051c81016020861015610cae5750805b601f850160051c820191505b81811015610ccd57828155600101610cba565b5050505b505050565b815167ffffffffffffffff811115610cf057610cf06109dc565b610d0481610cfe8454610c4d565b84610c87565b602080601f831160018114610d395760008415610d215750858301515b600019600386901b1c1916600185901b178555610ccd565b600085815260208120601f198616915b82811015610d6857888601518255948401946001909101908401610d49565b5085821015610d865787850151600019600388901b60f8161c191681555b5050505050600190811b01905550565b602081526000610da96020830184610b0c565b939250505056fea2646970667358221220f85e70d44c9805e079e454ec9ec50c39858e0743e12400d830bae90e59d11fb364736f6c63430008130033",
  "immutableReferences": {},
  "source": "// SPDX-License-Identifier: MIT\r\npragma solidity ^0.8.19;\r\n\r\ncontract MedicineSupplyChain {\r\n    // Structure to store medicine information\r\n    struct Medicine {\r\n        uint256 id;\r\n        string name;\r\n        string composition;\r\n        uint256 manufacturingDate;\r\n        uint256 expiryDate;\r\n        address manufacturer;\r\n        address retailer;\r\n        address buyer;\r\n        bool isSoldToRetailer;\r\n        bool isSoldToBuyer;\r\n    }\r\n\r\n    // Mapping to store medicines by their ID\r\n    mapping(uint256 => Medicine) public medicines;\r\n\r\n    // Counter for medicine IDs\r\n    uint256 public medicineCounter;\r\n\r\n    // Events to emit important actions\r\n    event MedicineAdded(uint256 indexed medicineId, string name, address indexed manufacturer);\r\n    event MedicineSoldToRetailer(uint256 indexed medicineId, address indexed retailer);\r\n    event MedicineSoldToBuyer(uint256 indexed medicineId, address indexed buyer);\r\n\r\n    // Modifiers to restrict access\r\n    modifier onlyManufacturer(uint256 medicineId) {\r\n        require(medicines[medicineId].manufacturer == msg.sender, \"Only the manufacturer can perform this action.\");\r\n        _;\r\n    }\r\n\r\n    modifier onlyRetailer(uint256 medicineId) {\r\n        require(medicines[medicineId].retailer == msg.sender, \"Only the retailer can perform this action.\");\r\n        _;\r\n    }\r\n\r\n    modifier onlyBuyer(uint256 medicineId) {\r\n        require(medicines[medicineId].buyer == msg.sender, \"Only the buyer can perform this action.\");\r\n        _;\r\n    }\r\n\r\n    modifier medicineNotSoldToRetailer(uint256 medicineId) {\r\n        require(!medicines[medicineId].isSoldToRetailer, \"Medicine already sold to a retailer.\");\r\n        _;\r\n    }\r\n\r\n    modifier medicineNotSoldToBuyer(uint256 medicineId) {\r\n        require(!medicines[medicineId].isSoldToBuyer, \"Medicine already sold to a buyer.\");\r\n        _;\r\n    }\r\n\r\n    // Manufacturer adds a new medicine to the blockchain\r\n    function addMedicine(\r\n        string memory _name,\r\n        string memory _composition,\r\n        uint256 _manufacturingDate,\r\n        uint256 _expiryDate\r\n    ) public {\r\n        require(_expiryDate > _manufacturingDate, \"Expiry date should be after the manufacturing date.\");\r\n\r\n        medicineCounter++;\r\n        medicines[medicineCounter] = Medicine(\r\n            medicineCounter,\r\n            _name,\r\n            _composition,\r\n            _manufacturingDate,\r\n            _expiryDate,\r\n            msg.sender, // Manufacturer address\r\n            address(0), // Retailer address (initially 0)\r\n            address(0), // Buyer address (initially 0)\r\n            false, // isSoldToRetailer flag\r\n            false  // isSoldToBuyer flag\r\n        );\r\n\r\n        emit MedicineAdded(medicineCounter, _name, msg.sender);\r\n    }\r\n\r\n    // Manufacturer sells medicine to a retailer\r\n    function sellMedicineToRetailer(uint256 _medicineId, address _retailer)\r\n        public\r\n        onlyManufacturer(_medicineId)\r\n        medicineNotSoldToRetailer(_medicineId)\r\n    {\r\n        medicines[_medicineId].retailer = _retailer;\r\n        medicines[_medicineId].isSoldToRetailer = true;\r\n\r\n        emit MedicineSoldToRetailer(_medicineId, _retailer);\r\n    }\r\n\r\n    // Retailer sells medicine to a buyer\r\n    function sellMedicineToBuyer(uint256 _medicineId, address _buyer)\r\n        public\r\n        onlyRetailer(_medicineId)\r\n        medicineNotSoldToBuyer(_medicineId)\r\n    {\r\n        medicines[_medicineId].buyer = _buyer;\r\n        medicines[_medicineId].isSoldToBuyer = true;\r\n\r\n        emit MedicineSoldToBuyer(_medicineId, _buyer);\r\n    }\r\n\r\n    // Buyer retrieves information about a purchased medicine\r\n    function getMedicineDetails(uint256 _medicineId)\r\n        public\r\n        view\r\n        returns (\r\n            string memory name,\r\n            string memory composition,\r\n            uint256 manufacturingDate,\r\n            uint256 expiryDate,\r\n            address manufacturer,\r\n            address retailer,\r\n            address buyer\r\n        )\r\n    {\r\n        Medicine memory medicine = medicines[_medicineId];\r\n        return (\r\n            medicine.name,\r\n            medicine.composition,\r\n            medicine.manufacturingDate,\r\n            medicine.expiryDate,\r\n            medicine.manufacturer,\r\n            medicine.retailer,\r\n            medicine.buyer\r\n        );\r\n    }\r\n\r\n    // Function to check if the medicine is expired\r\n    function isMedicineExpired(uint256 _medicineId) public view returns (bool) {\r\n        return block.timestamp > medicines[_medicineId].expiryDate;\r\n    }\r\n}",
  "sourcePath": "C:\\Users\\Subham\\Downloads\\BlockchainUI\\BlockchainUI\\MediSure\\contracts\\MedicineSupplyChain.sol",
  "compiler": {
    "name": "solc",
    "version": "0.8.19+commit.7dd6d404.Emscripten.clang"
  },
  "schemaVersion": "3.4.16",
  "updatedAt": "2025-04-10T08:45:47.158Z",
  "networkType": "ethereum",
  "devdoc": {
    "kind": "dev",
    "methods": {},
    "version": 1
  },
  "userdoc": {
    "kind": "user",
    "methods": {},
    "version": 1
  }
}